:020000040800F2
:100000002008002035040008B9030008BB030008DD
:10001000BD030008BF030008C10300080000000082
:10002000000000000000000000000000C303000802
:10003000C503000800000000C7030008C90300084A
:1000400075040008790400087D0400088104000894
:1000500085040008890400088D0400089104000844
:1000600095040008990400089D040008A1040008F4
:10007000A5040008A9040008AD040008B1040008A4
:10008000B5040008B9040008BD0400080000000021
:10009000000000000000000000000000C104000893
:1000A000C5040008C9040008CD040008D1040008F4
:1000B000D5040008D9040008DD040008E1040008A4
:1000C000E5040008E9040008ED040008F104000854
:1000D000F5040008F9040008FD0400080105000803
:1000E00005050008090500080D05000800000000CE
:1000F0000000000000000000000000000000000000
:1001000000000000000000000000000000000000EF
:10011000000000000000000011050008150500089F
:100120002E482F4A82B0016841F001010160416808
:10013000114041602B4A016811400160016821F4BF
:1001400080210160416821F4FE0141604FF41F01EC
:1001500081600021C16201910091016841F4803108
:100160000160016801F4003100910199491C01917D
:10017000009919B90199B1F5A06FF2D10168490C44
:1001800001F0010100910099012921D141684160EC
:100190004168416041684160416821F47C114160DF
:1001A000416841F498114160016841F0807101603B
:1001B00001688901FCD5416889088900416041686E
:1001C00041F002014160416801F00C010829FAD1B7
:1001D0004FF000600449086002B070470010024010
:1001E0000000FFF8FFFFF6FE08ED00E02DE9F0410A
:1001F000CC78002204F00F03E40644BF8C7823433C
:100200000C88E5B225B3D0F800C001255FF00F06D9
:1002100005FA02F707EA0408B84514D14FEA820E3E
:1002200006FA0EF82CEA080C03FA0EFE4EEA0C0C45
:1002300091F803E0BEF1280F08BF476103D0BEF17B
:10024000480F08BF0761521C082AE1D3C0F800C05C
:10025000FF2C28DDD0F804C0002201255FF00F0636
:1002600002F1080705FA07F707EA0408B84515D1AF
:100270004FEA820E06FA0EF82CEA080C03FA0EFE7C
:100280004EEA0C0C91F803E0BEF1280F08BF47615D
:1002900091F803E0BEF1480F08BF0761521C082A1D
:1002A000DED3C0F804C0BDE8F081C2685140C1602F
:1002B0007047000030B581B00121182000F046F8E9
:1002C0001C4D1D4C4FF40050288029460320A87077
:1002D0001020E8702046FFF789FF0120288029467A
:1002E0004820E8701548FFF781FF154800684FF473
:1002F0007A71B0FBF1F0B0F1807F0BD200021149AE
:10030000000A401E4860F02081F8130D002088602C
:10031000072008604FF400512046FFF7C6FF4FF456
:10032000FA70009000990848016001680029FCD12A
:10033000F0E7000014000020001001400008014018
:100340000000002010E000E018000020044A00290E
:10035000116814BF084321EA0000106070470000D4
:100360001810024010B450F8041B79B102684368B9
:1003700012180830DC0744BFA9F10104E31852F851
:10038000044B43F8044B091FF9D1ECE710BC70474C
:1003900010B5074979441831064C7C44163404E002
:1003A0000A68081D511888470146A142F8D110BDBE
:1003B0002C0000003C0000007047FEE7FEE7FEE76F
:1003C000FEE77047704770470348016811B1016844
:1003D000491E0160704700001800002089FFFFFFE0
:1003E0001C0000003401000000000020000000009C
:1003F00000F00BF8002801D0FFF7CAFF0020C0462C
:10040000C046FFF757FF00F002F80120704700F0E8
:1004100001B800000746384600F002F8FBE700008C
:1004200080B5C046C046024A11001820ABBEFBE7AB
:1004300026000200014880470148004721010008CA
:1004400045040008C046C046C046C046FFF7D0FF7E
:10045000FFF7B2BFFFF7B1BFFFF7B0BFFFF7AFBF06
:10046000FFF7AEBFFFF7ADBFFFF7ACBFFFF7ABBF06
:10047000FFF7AABFFFF7FEBFFFF7FEBFFFF7FEBF04
:10048000FFF7FEBFFFF7FEBFFFF7FEBFFFF7FEBFA0
:10049000FFF7FEBFFFF7FEBFFFF7FEBFFFF7FEBF90
:1004A000FFF7FEBFFFF7FEBFFFF7FEBFFFF7FEBF80
:1004B000FFF7FEBFFFF7FEBFFFF7FEBFFFF7FEBF70
:1004C000FFF7FEBFFFF7FEBFFFF7FEBFFFF7FEBF60
:1004D000FFF7FEBFFFF7FEBFFFF7FEBFFFF7FEBF50
:1004E000FFF7FEBFFFF7FEBFFFF7FEBFFFF7FEBF40
:1004F000FFF7FEBFFFF7FEBFFFF7FEBFFFF7FEBF30
:10050000FFF7FEBFFFF7FEBFFFF7FEBFFFF7FEBF1F
:10051000FFF7FEBFFFF7FEBF00366E0100000000D0
:1005200000000000010203040607080900000000A3
:0405300000000000C7
:0400000508000445A6
:00000001FF
