:020000040800F2
:10000000F0060020910100088B080008870800080E
:1000100089080008350600086D0D00080000000082
:10002000000000000000000000000000CD090008F2
:100030006B07000800000000F1080008A10A000892
:10004000AB010008AB010008AB010008AB010008E0
:10005000AB010008AB010008AB010008AB010008D0
:10006000AB010008AB010008AB010008AB010008C0
:10007000AB010008AB010008AB010008AB010008B0
:10008000AB010008AB010008AB010008AB010008A0
:10009000AB010008AB010008AB010008AB01000890
:1000A000AB010008AB010008AB010008AB01000880
:1000B000F50A0008AB010008AB010008AB0100081D
:1000C000AB010008AB010008AB010008AB01000860
:1000D000AB010008AB010008AB010008AB01000850
:1000E000AB010008AB010008AB01000800F002F80A
:1000F00000F03FF80AA090E8000C82448344AAF183
:100100000107DA4501D100F034F8AFF2090EBAE880
:100110000F0013F0010F18BFFB1A43F0010318473B
:10012000D00C0000F00C0000103A24BF78C878C151
:10013000FAD8520724BF30C830C144BF04680C60ED
:10014000704700000023002400250026103A28BF35
:1001500078C1FBD8520728BF30C148BF0B60704739
:10016000642900F07D80002070471FB51FBD10B5C9
:1001700010BD00F02AF91146FFF7F7FF00F0F8FD77
:1001800000F048F903B4FFF7F2FF03BC00F050F9A8
:100190000948804709480047FEE7FEE7FEE7FEE71B
:1001A000FEE7FEE7FEE7FEE7FEE7FEE70448054957
:1001B000054A064B70470000A50A0008ED0000083C
:1001C000F0000020F0060020F0020020F0020020E5
:1001D0000FB41CB5074B06AA7B44694600900598EE
:1001E00000F0DBF80020694600F0EAF81CBC5DF87E
:1001F00014FB0000E50100002DE9F0410E46044625
:10020000002020622046E168884730B3252805D0C9
:10021000D4E901219047206A401CF2E7E1682046BA
:1002200000278847050018D0A5F14100192802D8F9
:1002300020354FF400673246294620462760FFF7F5
:100240008FFF40B1012804D0F61D26F007060836BE
:10025000D8E7361DD6E72846DAE7206ABDE8F08100
:100260002DE9F0410646002410687529314616A58F
:1002700010D0AFF30080002802DA404213A507E057
:1002800031688A0701D512A502E0490704D511A5F6
:10029000012401E0AFF3008000210A2206F12407C7
:1002A00009E0B0FBF2FCB0FBF2F302FB1C003030C3
:1002B00078541846491C0028F3D123462A46304674
:1002C000BDE8F04100F00BB8000000002D00000078
:1002D0002B000000200000007047704770472DE998
:1002E000F0470D4699469246044600F124080168FD
:1002F000880604D5E06921F01001216000E00120AA
:10030000A84201DD471B00E00027A1697A1902EB32
:100310000900081AA0612078C00602D42046AFF375
:100320000080002608E0D4E901211AF80600904771
:10033000206A401C761C20624E45F4DB2078C00603
:100340000AD52046AFF3008006E0D4E90121302031
:100350009047206A401C2062381EA7F10107F4DC98
:1003600007E0D4E9012118F805009047206A401CF5
:100370002062281EA5F10105F3DC2046AFF30080C2
:100380002078000602D50220BDE8F0870120FBE7B7
:1003900001694A1C02610878704700B58FB0CDE949
:1003A00001310021059105497944CDE90310114639
:1003B0006846FFF721FF0FB000BD0000E5FFFFFF1B
:1003C0000A6802F8010B0A607047754600F02CF8C5
:1003D000AE4605006946534620F00700854618B032
:1003E00020B5FFF7E3FEBDE820404FF000064FF0D8
:1003F00000074FF000084FF0000B21F00701AC465A
:10040000ACE8C009ACE8C009ACE8C009ACE8C00978
:100410008D46704710B50446AFF300802046BDE816
:100420001040FFF7AFBE000000487047900000206A
:1004300001491820ABBEFEE72600020070470029E4
:10044000816802D041F0010101E021F001018160E9
:100450007047000070B52E4E304600F0F7F82E4978
:100460002C48002448602D4808600225C1E9024557
:100470008020C1E90440400088618000C8612020DC
:1004800008624FF44050C1E90904304600F050F9C9
:100490000121304600F0CFF81F4801212C300460C4
:1004A000017141714FF46021C0E902141B4C0574C5
:1004B00001464C3C204600F04BF801220523114632
:1004C000204600F069F8022205231146204600F07C
:1004D00063F80121204600F023F801212046FFF7B0
:1004E000AEFF204600F092F8204600F02AF80028DF
:1004F000FAD1204600F099F8204600F01BF80028B9
:10050000FAD12046BDE87040012100F084B8000017
:100510000800024006000020400000204C2401405A
:100520000029816802D041F4807101E021F48071DA
:1005300081607047014600208968490700D5012085
:100540007047014600208968090700D501207047DF
:1005500010B542680E4B0C791A400B6842EA04222F
:100560001343436083680B4A1340D1E9024222439C
:100570004C7943EA44031A438260C26A097C22F43C
:100580007002491EC9B242EA0151C16210BD0000A9
:10059000FFFEF0FFFDF7F1FF70B5072409290AD926
:1005A000C568A1F10A0606EB4606B440A543B34070
:1005B0001D43C56007E0056901EB4106B440A54352
:1005C000B3401D4305611F23072A09D2446B521E05
:1005D00002EB820293409C4391400C43446370BD04
:1005E0000D2A09D2046BD21F02EB820293409C4376
:1005F00091400C43046370BDC46A0D3A02EB820261
:1006000093409C4391400C43C46270BD816841F0AB
:100610000801816070470029816802D041F4A0017F
:1006200001E021F4A00181607047816841F004017C
:1006300081607047FEE70029016802D041F00101A6
:1006400002E04FF6FE7211400160704701684FF6FC
:10065000FE72114001600021016041608160C16053
:100660003149314A0839904203D1486840F00F00BF
:1006700006E02D4A1432904204D1486840F0F00060
:1006800048607047284A2832904203D1486840F4B5
:100690007060F5E7244A3C32904203D1486840F448
:1006A0007040EDE7204A5032904203D1486840F450
:1006B0007020E5E71C4A6432904203D1486840F458
:1006C0007000DDE7184A7832904203D1486840F064
:1006D0007060D5E7154A111F904203D1086840F0B9
:1006E0000F0006E0114A1432904204D1086840F02D
:1006F000F000086070470D4A2832904203D1086824
:1007000040F47060F5E7094A3C32904203D1086832
:1007100040F47040EDE7054A50329042EAD1086853
:1007200040F47020E5E700000800024008040240A1
:1007300030B5036847F6F07293430C6A8A68224327
:10074000D1E904452C4322438C692243CC692243DE
:100750004C6A22438C6A22431A430260CA68426090
:100760000A6882604968C16030BD70472DE9F04178
:10077000164C022003252080A5701026E670214625
:10078000134800F02BF804272780A570E670214657
:10079000104800F023F8700120801820E070A57048
:1007A0000D4D2146284600F019F828152080E770E5
:1007B0002146284600F012F8062020800020E07034
:1007C00021462846BDE8F04100F008B80A000020A4
:1007D000000C01400014014000080140F0B5CA7847
:1007E000002502F00F03D20601D58A7813430A7858
:1007F0004FF00F0E12F0FF0F4FF001021CD00468F3
:100800000F8802FA05F63740B74211D14FEA850C3E
:100810000EFA0CF724EA070703FA0CF43C43CF78EE
:10082000282F02D0482F02D002E0466100E0066186
:100830006D1C082DE4D304600C88FF2C1ED944687D
:100840005FF0000606F1080702FA07F50F882F404F
:10085000AF420FD14FEA860C0EFA0CF7BC4303FAF5
:100860000CF73C43CF78282F00D14561CF78482F33
:1008700000D10561761C082EE4D34460F0BDC26847
:100880004A40C2607047FEE7FEE7704770B50F232D
:10089000C47801780122F4B1144C2468457804F43A
:1008A000E064C4F5E064240AC4F10406E3408478FB
:1008B000B5401C402C4301F1E021230181F80034B4
:1008C000007800F01F018A404009800000F1E0201C
:1008D000C0F8002170BD01F01F008240480980006F
:1008E00000F1E020C0F8802170BD00000CED00E0B8
:1008F00070470000044A0029516901D0014300E01B
:10090000814351617047000000100240044A0029F1
:10091000D16901D0014300E08143D16170470000FB
:1009200000100240044A0029916901D0014300E00F
:1009300081439161704700000010024030B51F49AB
:100940004A6812F00C031E4A03D0042B01D0082B76
:1009500021D002604A680F231A4C03EA1212A35CEA
:100960000268DA4042604B68072505EA1323E35C1E
:1009700022FA03F383604B6805EAD323E35CDA4091
:10098000C2604968032303EA9131231F595CB2FB1B
:10099000F1F1016130BD4A684B6802F470124FF00A
:1009A000020413F4803F04EB924202D04B689B0395
:1009B00001D5054B00E0024B5A43CAE70010024044
:1009C00000127A001600002000093D007047000068
:1009D00070B50446074D09E02846641C00F0C2F9D2
:1009E0008021284600F060F90028F9D021780029FC
:1009F000F2D170BD003801400CB5002126480191AC
:100A00000091026842F4803202604FF4A0630268F1
:100A100002F400320092019A521C0192009A12B91B
:100A2000019A9A42F3D10268920333D501210091D1
:100A30001A490A6842F010020A600A6822F00302AA
:100A40000A600A6842F002020A6041684160416837
:100A50004160416841F480614160416821F47C114A
:100A60004160416841F4E8114160016841F08071E2
:100A7000016001688901FCD5416821F003014160F2
:100A8000416841F0020141604168C1F381010229DE
:100A9000FAD10CBD00910CBD0010024000200240B4
:100AA000704700000F4810B5016841F00101016076
:100AB00041680D4A1140416001680C4A11400160D3
:100AC000016821F480210160416821F4FE01416048
:100AD0004FF41F018160FFF78FFF05494FF0006061
:100AE000086010BD001002400000FFF8FFFFF6FE96
:100AF00008ED00E010B501218C07204600F04FF80A
:100B000000280FD00121204600F03CF802210648C1
:100B1000FFF7B5FE05490A88881F42804988018091
:100B20000121818010BD0000000C01400600002062
:100B300070B5124840F2671100240180C7218180FE
:100B4000C480448001464FF08045284600F03CF8C0
:100B500001221146284600F02EF80121284600F017
:100B600014F807481C210170447002218170012192
:100B7000C170BDE87040FFF789BE0000340000205E
:100B80000E000020C943018270470029018802D06D
:100B900041F0010101E021F00101018070470246AE
:100BA0000020138A92890B4202EA010202D0002A35
:100BB00000D001207047002A828901D00A4300E05A
:100BC0008A4382817047000030B502881B4B1C4C61
:100BD00098420DD0A0420BD0B0F1804F08D0194DF3
:100BE000A84205D0184DA84202D0184DA84203D102
:100BF00022F070054A882A43154DA84206D0154DAB
:100C0000A84203D022F44075CA882A4302808A8809
:100C100082850A88028598420AD0A04208D00E4AEE
:100C2000904205D00D4A904202D00D4A904201D127
:100C3000097A01860121818230BD0000002C01402B
:100C4000003401400004004000080040000C004057
:100C500000100040001400400040014000440140EA
:100C6000004801400029818902D041F4005101E08F
:100C700021F400518181704710B50949094C086081
:100C800000208880C880088188810C204881204607
:100C900000F012F82046BDE810400121FFF7E2BF46
:100CA00080000020003801400246002012880A42DD
:100CB00000D001207047000030B50446008A85B09E
:100CC0000D464CF6FF710840E98801432182A18955
:100CD0004EF6F3100140A8882A8910436A890A4316
:100CE0001043A081A08A4FF6FF410840A989014323
:100CF000A1826846FFF722FE1948844201D1039879
:100D000000E00298A189090400EBC00101EB00108A
:100D1000296801D5490000E08900B0FBF1F06422A8
:100D2000B0FBF2F109010B096FF018056B4300EB02
:100D30008300A3891D044FF0320306D503EBC000E6
:100D4000B0FBF2F000F0070005E003EB0010B0FB91
:100D5000F2F000F00F000843208105B030BD000024
:100D600000380140C1F3080181807047FEE70000B0
:100D700001210420FFF7D6FD01210820FFF7D2FD55
:100D800001212020FFF7CEFD01210846FFF7B2FD2B
:100D900001214802FFF7C6FD01210846FFF7B6FD15
:100DA00001218803FFF7BEFDFFF7E0FCFFF752FBD0
:100DB000FFF7BEFE4FF46130FFF75EFF074C0025E2
:100DC000A0880028FCD0A5806388228804A1074859
:100DD000FFF7FEF90548FFF7FBFDF1E700000020F3
:100DE0002564400A2564240A000000002800002031
:100DF000100E000800000020280000002801000854
:100E0000380E000828000020C80600004401000831
:100E100000000000000000000000000000000000D2
:100E200000000204060800000000010203040102A1
:080E3000030406070809000095
:04000005080000ED02
:00000001FF
